:10000000B8C00000D1C00000CFC00000CDC00000CB
:10001000CBC00000C9C00000C7C00000C5C00000C0
:10002000C3C00000C1C00000BFC00000C7C40000C2
:10003000BBC00000B9C00000B7C00000B5C00000E0
:10004000B3C00000B1C00000AFC00000ADC00000F0
:10005000ABC00000A9C00000A7C0000064C700003A
:1000600037C70000A1C000009FC000009DC0000075
:100070009BC0000099C0000097C0000095C0000020
:1000800093C0000091C000008FC000008DC0000030
:100090008BC0000089C0000005010905A101150001
:1000A0002501350045017501951005091901291033
:1000B000810205012507463B017504950165140978
:1000C00039814265009501810126FF0046FF000944
:1000D000300931093209357508950481020600FF9F
:1000E0000920950181020A212695089102C012017A
:1000F0000002000000400D0F92000001010200010B
:100100000902290001010080FA090400000203002D
:1001100000000921110100012256000705020340D9
:10012000000507058103400005040309041C03487A
:10013000004F0052004900200043004F002E002CC9
:10014000004C00540044002E000000240350004FD7
:10015000004B004B0045004E00200043004F004E76
:1001600000540052004F004C004C0045005200006B
:10017000000011241FBECFEFD2E0DEBFCDBF11E0E3
:10018000A0E0B1E0E0EEFFE002C005900D92A630E5
:10019000B107D9F711E0A6E0B1E001C01D92A8387F
:1001A000B107E1F77AD11AC72BCF089508950895C2
:1001B000FC0198E0DF01892F1D928A95E9F780E81C
:1001C00083838483858386839283809103019091C6
:1001D0000401892B71F0DF01E3E7F1E088E0019091
:1001E0000D928150E1F780910301909104010197F4
:1001F000C9C080910601882321F0813009F0B4C084
:10020000089580910001813609F46EC0823668F548
:10021000883309F455C0893398F4823309F454C003
:10022000833338F48B3209F47BC08D3209F090C0EF
:1002300073C0843309F446C0863309F089C047C0CF
:100240008C3409F461C08D3448F48E33B1F18334B9
:1002500009F46AC08C3309F07BC02AC0823509F4E6
:1002600057C08E3509F074C021C0803709F46CC0C6
:10027000813760F4833609F45BC08336C8F1883671
:1002800009F45EC08C3609F063C036C0863791F041
:10029000873730F48237A1F1843709F059C04CC058
:1002A0008837C1F0893709F053C018C0148256C08E
:1002B000138254C08FEF848351C08FEF83834EC06D
:1002C00016824CC015824AC08FEF868347C08FEFDD
:1002D000858344C080819181886003C08081918141
:1002E0008160918380833AC0808191818460F9CF5D
:1002F000808191818260F5CF808191818061F1CF91
:10030000808191818062EDCF808191818064E9CF8D
:10031000808191818068E5CF808191819160E1CF7A
:10032000808191819260DDCF808191819460D9CF6D
:10033000808191819860D5CF808191818063D1CF78
:10034000808191819061CDCF808191819062C9CF70
:1003500081E090E0909302018093010181E080931D
:10036000060180E380930001A3E7B1E088E00190FB
:100370000D928150E1F780910101909102016AE0B4
:1003800070E0F8D590930401809303010895FF92E3
:100390000F931F93DF93CF93CDB7DEB728970FB698
:1003A000F894DEBF0FBECDBF80917F01843009F08D
:1003B0004AC082E08093E9008091E80082FF14C087
:1003C0008091E80085FF0BC08E010F5F1F4FC801B1
:1003D00067E070E040E050E07AD18823C1F7809177
:1003E000E8008B778093E80081E08093E9008091BA
:1003F000E80080FF15C08E010F5F1F4FC801D8DED7
:10040000F02E012F8F2D902F68E070E040E050E03B
:10041000B0D18823B9F78091E8008E778093E80007
:100420004CD5823080F035D58093000132D5809351
:10043000010110920201109206018091000113D572
:100440008091010110D528960FB6F894DEBF0FBE3B
:10045000CDBFCF91DF911F910F91FF90089582E062
:1004600060EC42E3D8D181E061EC42E3D4C184B7CF
:10047000877F84BF88E10FB6F89480936000109264
:1004800060000FBEE1E6F0E080E88083108260E863
:1004900075E280E090E0BCD482C2E9DF789477DF37
:1004A000A2D4FDCFDA01292F332723303105E1F023
:1004B0002430310540F42130310561F0223031051E
:1004C00009F034C00CC02132310531F1223231053E
:1004D00069F527C0EEEEF0E022E130E02BC0E0E06D
:1004E000F1E029E230E026C090708130910551F0B2
:1004F0008130910518F00297C9F40AC0E9E2F1E0F1
:10050000849103C0EDE2F1E08491282F30E012C025
:10051000EBE4F1E08491F9CFE2E1F1E029E030E0B1
:1005200009C0E8E9F0E026E530E004C0E0E0F0E0F2
:1005300020E030E0ED93FC93C90108959C014091C7
:100540008601509187014617570718F4F90190E08A
:100550003DC06115710511F0AB01F8CF8091E80045
:100560008E778093E80040E050E0F0CF80917F01EB
:10057000882309F441C0853009F440C08091E80027
:1005800083FD3EC08091E80082FD30C08091E8008C
:1005900080FF1CC08091F200282F30E007C08191BD
:1005A0008093F100415050402F5F3F4F411551055E
:1005B00019F02034310598F390E02034310509F426
:1005C00091E08091E8008E778093E8004115510515
:1005D00069F6992359F60AC080917F01882361F05A
:1005E000853061F08091E80083FD0AC08091E800C9
:1005F00082FFF2CF80E0089582E0089583E00895BD
:1006000081E008959C014091860150918701461731
:10061000570718F4F90190E03EC06115710511F01B
:10062000AB01F8CF8091E8008E778093E80040E03E
:1006300050E0F0CF80917F01882309F442C08530DB
:1006400009F441C08091E80083FD3FC08091E8003B
:1006500082FD31C08091E80080FF1DC08091F200D2
:10066000282F30E008C084918093F10031964150EA
:1006700050402F5F3F4F4115510519F0203431058F
:1006800090F390E02034310509F491E08091E80086
:100690008E778093E8004115510561F6992351F654
:1006A0000AC080917F01882361F0853061F08091DC
:1006B000E80083FD0AC08091E80082FFF2CF80E06D
:1006C000089582E0089583E0089581E00895BF923F
:1006D000CF92DF92EF92FF920F931F93CF93DF930E
:1006E000182F092F7B016A01EFD0B82E8823B1F5AE
:1006F000812F902F9C01E901C114D10439F0F6013A
:1007000080819181E81AF90AC80FD91F00E010E032
:1007100022C08091E80085FD16C08091E8008B77AB
:100720008093E80060D3C114D10449F0F6018081C0
:100730009181800F911F9183808385E010C0C4D088
:10074000882349F00CC08091F10089930894E10856
:10075000F1080F5F1F4FE114F104D9F68B2DDF91E3
:10076000CF911F910F91FF90EF90DF90CF90BF90AE
:100770000895BF92CF92DF92EF92FF920F931F9353
:10078000CF93DF93182F092F7B016A019DD0B82EDC
:100790008823B1F5812F902F9C01E901C114D10468
:1007A00039F0F60180819181E81AF90AC80FD91F42
:1007B00000E010E022C08091E80085FD16C0809125
:1007C000E8008E778093E8000ED3C114D10449F07D
:1007D000F60180819181800F911F9183808385E054
:1007E00010C072D0882349F00CC089918093F10029
:1007F0000894E108F1080F5F1F4FE114F104D9F6E6
:100800008B2DDF91CF911F910F91FF90EF90DF9093
:10081000CF90BF900895382F282F2EC0822F8F7031
:100820008093E900231721F4762F942F50E006C01F
:100830007091EC009091ED005091F00091FF1BC081
:100840008091EB008E7F8093EB008091ED008D7F97
:100850008093ED008091EB0081608093EB007093BA
:10086000EC009093ED005093F0008091EE0087FD36
:1008700002C080E008952F5F253080F23F703093F2
:10088000E90081E008958091800188239CF404C0F0
:1008900080917F018823B9F08091E80082FFF8CF32
:1008A0008091E8008B778093E800089580917F0124
:1008B000882349F08091E80080FFF8CF8091E8001C
:1008C0008E778093E80008954091E4005091E50010
:1008D00024E68091EC0080FF24C08091E80080FD38
:1008E0001EC080917F01882311F482E00895853035
:1008F00011F483E008958091EB0085FF02C081E050
:1009000008958091E4009091E5008417950709F31C
:10091000222311F484E008952150AC01DACF80E065
:1009200008958091E80082FFDCCFF9CF41D043D019
:100930008091D8008F778093D8008091D80080680C
:100940008093D8008091D8008F7D8093D80084E078
:1009500089BD86E089BD09B400FEFDCF10927F01FC
:1009600010927B0110927D0110927C0180E060E08A
:1009700042E351DF8091E1008E7F8093E10080911E
:10098000E20081608093E2008091E20088608093C1
:10099000E2008091E0008E7F8093E0000895E3E61E
:1009A000F0E080818E7F808381E080937E01BECFE6
:1009B0001092E20008951092E10008951F920F92A4
:1009C0000FB60F9211242F933F934F935F936F9322
:1009D0007F938F939F93AF93BF93EF93FF938091F8
:1009E000E10082FF0AC08091E20082FF06C0809190
:1009F000E1008B7F8093E100F5D18091E10080FFE1
:100A000017C08091E20080FF13C08091E2008E7FCA
:100A10008093E2008091E20080618093E200809107
:100A2000D80080628093D80019BC10927F01BEDB91
:100A30008091E10084FF2FC08091E20084FF2BC0F1
:100A400084E089BD86E089BD09B400FEFDCF8091B8
:100A5000D8008F7D8093D8008091E1008F7E8093B5
:100A6000E1008091E2008F7E8093E2008091E200BD
:100A700081608093E20080917B01882311F084E003
:100A800007C08091E30087FD02C081E001C083E0E0
:100A900080937F018ADB8091E10083FF22C08091F7
:100AA000E20083FF1EC08091E100877F8093E10018
:100AB00082E080937F0110927B018091E1008E7F24
:100AC0008093E1008091E2008E7F8093E20080912C
:100AD000E20080618093E20080E060E042E39BDE20
:100AE00081D1FF91EF91BF91AF919F918F917F91B4
:100AF0006F915F914F913F912F910F900FBE0F908B
:100B00001F9018951F93DF93CF93CDB7DEB7AC97A7
:100B10000FB6F894DEBF0FBECDBFE0E8F1E08091E4
:100B2000F100819321E0E838F207C9F740DB8091BA
:100B3000E80083FF3FC18091800130918101353011
:100B400009F48DC0363040F43130E1F1313070F0CD
:100B5000333009F02FC136C0383009F4FDC03930C8
:100B600009F40CC1363009F025C19CC0803821F051
:100B7000823809F01FC108C090917C0180917D01ED
:100B80008823B1F0926014C0809184018F70853009
:100B900008F010C18093E9008091EB0090E025E01F
:100BA000969587952A95E1F7982F91701092E90014
:100BB0008091E800877F8093E8009093F100109285
:100BC000F100D5C0882319F0823009F0F3C090E01D
:100BD0008F719070009721F0029709F0EBC00CC064
:100BE00080918201813009F0E5C010927D0133309F
:100BF00081F580937D012DC080918201882349F584
:100C0000209184012F70822F8150843008F0D2C04F
:100C10002093E9008091EB0080FF1BC0333021F46A
:100C20008091EB00806213C08091EB008061809323
:100C3000EB0081E090E002C0880F991F2A95E2F74F
:100C40008093EA001092EA008091EB008860809324
:100C5000EB001092E9008091E800877F8BC0882329
:100C600009F0A8C0109182011F778091E30080787D
:100C7000812B8093E3008091E800877F8093E800D8
:100C800002DE8091E80080FFFCCF8091E300806865
:100C90008093E300112311F482E001C083E080938C
:100CA0007F0188C08058823008F084C08091820122
:100CB0009091830123E08C3D920709F033C083E0DB
:100CC0008C838AE28B837FB7F894DE0115966EE001
:100CD00040E050E011E2E62FF0E0109357008491DD
:100CE00040FF03C082958F706F5F8F70282F30E0B8
:100CF0008A3018F0C901C79602C0C901C0968D9309
:100D00009D934F5F5F4F4431510529F77FBF80911D
:100D1000E800877F8093E800CE0103966AE270E0E6
:100D20000DDC14C06091840170918501AE014F5FAC
:100D30005F4FB8DBBC01009709F43CC08091E8002C
:100D4000877F8093E80089819A815CDC8091E8004C
:100D50008B778093E8002EC0803861F58091E800A1
:100D6000877F8093E80080917B018093F1008091E0
:100D7000E8008E778093E80086DD1CC08823D1F4DC
:100D8000909182019230B0F48091E800877F809347
:100D9000E80090937B0177DD80917B01882331F41B
:100DA0008091E30087FD02C081E001C084E0809370
:100DB0007F0155DB8091E80083FF0AC08091E80045
:100DC000877F8093E8008091EB0080628093EB0046
:100DD000AC960FB6F894DEBF0FBECDBFCF91DF91BA
:100DE0001F91089508951F9380917F01882371F0CA
:100DF0001091E9008091EC001092E9008091E800E8
:100E000083FF01C07FDE1F701093E9001F910895DA
:100E10009B01AC01F89460E079E08DE390E0BCD0F8
:100E20002150304040405040569547953795279582
:100E30003093CD002093CC0082E08093C80088E9F5
:100E40008093C90086E08093CA001092300180919F
:100E5000300180932F011092720180917201809372
:100E6000710178940895282F90912F019F5F9832F7
:100E700008F090E0809130018917E1F3E92FF0E06C
:100E8000E95FFE4F208390932F0188EB8093C90088
:100E9000089590917101809172019817D1F390910A
:100EA00072019F5F903408F090E0E92FF0E0EF5C72
:100EB000FE4F80819093720108958091710190910D
:100EC0007201891710F0891B0895805C891B0895B1
:100ED0001F920F920FB60F9211248F939F93EF934F
:100EE000FF9390912F0180913001981721F488E9A8
:100EF0008093C9000FC0909130019F5F983208F035
:100F000090E0E92FF0E0E95FFE4F80818093CE0012
:100F100090933001FF91EF919F918F910F900FBEB1
:100F20000F901F9018951F920F920FB60F921124D9
:100F30002F938F939F93EF93FF932091CE009091E7
:100F400071019F5F903408F090E0809172019817D2
:100F500039F0E92FF0E0EF5CFE4F208390937101B0
:100F6000FF91EF919F918F912F910F900FBE0F9056
:100F70001F9018955527002480FF02C0060E571FAA
:100F8000660F771F6115710521F09695879500977B
:100F900099F7952F802D0895A1E21A2EAA1BBB1B4D
:100FA000FD010DC0AA1FBB1FEE1FFF1FA217B30735
:100FB000E407F50720F0A21BB30BE40BF50B661F4B
:100FC000771F881F991F1A9469F76095709580950F
:100FD00090959B01AC01BD01CF010895F894FFCF1E
:060FE0006101000A00009F
:00000001FF
