:10000000C2C00000DBC00000D9C00000D7C00000A3
:10001000D5C00000D3C00000D1C00000CFC0000098
:10002000CDC00000CBC00000C0C40000C7C00000AD
:10003000C5C00000C3C00000C1C00000BFC00000B8
:10004000BDC00000BBC00000B9C00000B7C00000C8
:10005000B5C00000B3C00000B1C00000AFC00000D8
:10006000ADC0000071C7000044C70000A7C0000079
:10007000A5C00000A3C00000A1C000009FC00000F8
:100080009DC000009BC0000099C0000097C0000008
:1000900095C0000093C0000091C000008FC0000018
:1000A0008DC000008BC0000089C00000050109055B
:1000B000A1011500250135004501750195100509BF
:1000C00019012910810205012507463B0175049598
:1000D0000165140939814265009501810126FF00FF
:1000E00046FF000930093109320935750895048148
:1000F000020600FF0920950181020A212695089138
:1001000002C012010002000000400D0F9200000129
:10011000010200010902290001010080FA0904001E
:10012000000203000000092111010001225600070E
:10013000050203400005070581034000050403098B
:10014000041C0348004F0052004900200043004FA8
:10015000002E002C004C00540044002E000000240F
:100160000350004F004B004B0045004E0020004361
:10017000004F004E00540052004F004C004C004510
:1001800000520000000011241FBECFEFDAE0DEBFF6
:10019000CDBF11E0A0E0B1E0EEEDFFE002C00590C0
:1001A0000D92A430B107D9F711E0A4E0B1E001C08D
:1001B0001D92A638B107E1F74ED10FC721CF0895A0
:1001C00008950895FC0198E0DF01892F1D928A951A
:1001D000E9F780E883838483858386839283809193
:1001E0000101909102011816190674F4DF01E1E78C
:1001F000F1E088E001900D928150E1F780910101DA
:10020000909102010197A1C080910401882321F0FF
:10021000813009F091C0089580910001833609F47E
:1002200074C0843608F58C3409F45BC08D3488F4CE
:100230008C33B9F18D3338F48B3209F45EC08D32D2
:1002400009F074C056C08E3389F1833409F06EC052
:1002500058C08136B1F18236C0F5823509F445C007
:100260008E3509F063C01BC08237B9F1833748F47B
:100270008C3679F1803709F454C0883609F056C0BD
:100280004CC0863781F0873720F4843709F04EC0A0
:1002900040C0883771F0893709F048C00EC0148219
:1002A00045C0138243C08FEF848340C08FEF8383A8
:1002B0003DC080819181886037C08081918181605B
:1002C00033C08081918184602FC080819181826060
:1002D0002BC080819181806127C080819181806263
:1002E00023C08081918180641FC08081918180685A
:1002F0001BC080819181916017C080819181926043
:1003000013C08081918194600FC080819181986039
:100310000BC080819181806307C080819181906151
:1003200003C08081918190629183808381E080937A
:10033000040180E380930001A1E7B1E088E001902F
:100340000D928150E1F785E090E090930201809357
:1003500001010895FF920F931F93DF93CF93CDB7C1
:10036000DEB728970FB6F894DEBF0FBECDBF8091E1
:100370007D01843009F045C082E08093E9008091DE
:10038000E80082FF14C08091E80085FF0BC08E0159
:100390000F5F1F4FC80167E070E040E050E075D18B
:1003A0008823C1F78091E8008B778093E80081E093
:1003B0008093E9008091E80080FF17C08E010F5FF5
:1003C0001F4FC801FFDEF02E012F8F2D902F68E008
:1003D00070E040E050E0ABD18823B9F78091E800AD
:1003E0008E778093E80001C065D578D58230E0F73C
:1003F00075D5882331F05ED58093000110920401F9
:1004000043D528960FB6F894DEBF0FBECDBFCF916F
:10041000DF911F910F91FF90089582E060EC42E31D
:10042000D8D181E061EC42E3D4C184B7877F84BF37
:1004300088E10FB6F89480936000109260000FBEC0
:10044000E1E6F0E080E88083108260E875E280E019
:1004500090E0EFD48DC2E9DF78947CDFD5D4FDCF76
:10046000DA019330B1F0943028F4913041F09230B9
:1004700079F50AC0913211F1923251F524C0E2E0CF
:10048000F1E022E130E028C0E4E1F1E029E230E0EF
:1004900023C0813049F0813018F08230C9F40AC09D
:1004A000EDE3F1E0849103C0E1E4F1E08491282FD1
:1004B00030E012C0EFE5F1E08491F9CFE6E2F1E03F
:1004C00029E030E009C0ECEAF0E026E530E004C0C5
:1004D000E0E0F0E020E030E0ED93FC93C901089506
:1004E0009C0140918401509185014617570718F4EB
:1004F000F90190E043C06115710511F0AB01F8CF2F
:100500008091E8008E778093E80040E050E0F0CFE3
:1005100080917D01882309F447C0853009F446C0E5
:100520008091E80083FD44C08091E80082FD36C0E0
:100530008091E80080FF22C08091F3009091F2004A
:10054000782F60E0292F30E0262B372B07C08191D0
:100550008093F100415050402F5F3F4F41155105AE
:1005600019F02034310598F390E02034310509F476
:1005700091E08091E8008E778093E8004115510565
:1005800039F6992329F60AC080917D01882361F00C
:10059000853061F08091E80083FD0AC08091E80019
:1005A00082FFF2CF80E0089582E0089583E008950D
:1005B00081E008959C014091840150918501461786
:1005C000570718F4F90190E044C06115710511F066
:1005D000AB01F8CF8091E8008E778093E80040E08F
:1005E00050E0F0CF80917D01882309F448C0853028
:1005F00009F447C08091E80083FD45C08091E80080
:1006000082FD37C08091E80080FF23C08091F30015
:100610009091F200782F60E0292F30E0262B372BC5
:1006200008C084918093F1003196415050402F5F73
:100630003F4F4115510519F02034310590F390E0FA
:100640002034310509F491E08091E8008E778093A1
:10065000E8004115510531F6992321F60AC0809131
:100660007D01882361F0853061F08091E80083FD91
:100670000AC08091E80082FFF2CF80E0089582E016
:10068000089583E0089581E00895BF92CF92DF92AC
:10069000EF92FF920F931F93CF93DF93182F092FA1
:1006A0007B016A01EFD0B82E8823B1F5812F902FFE
:1006B0009C01E901C114D10439F0F60180819181D6
:1006C000E81AF90AC80FD91F00E010E022C0809193
:1006D000E80085FD16C08091E8008B778093E800E4
:1006E00093D3C114D10449F0F60180819181800F28
:1006F000911F9183808385E010C0C4D0882349F086
:100700000CC08091F10089930894E108F1080F5F13
:100710001F4FE114F104D9F68B2DDF91CF911F917A
:100720000F91FF90EF90DF90CF90BF900895BF9210
:10073000CF92DF92EF92FF920F931F93CF93DF93AD
:10074000182F092F7B016A019DD0B82E8823B1F59F
:10075000812F902F9C01E901C114D10439F0F601D9
:1007600080819181E81AF90AC80FD91F00E010E0D2
:1007700022C08091E80085FD16C08091E8008E7748
:100780008093E80041D3C114D10449F0F60180817F
:100790009181800F911F9183808385E010C072D07A
:1007A000882349F00CC089918093F1000894E108F6
:1007B000F1080F5F1F4FE114F104D9F68B2DDF9183
:1007C000CF911F910F91FF90EF90DF90CF90BF904E
:1007D0000895382F282F2EC0822F8F708093E90024
:1007E000231721F4762F942F50E006C07091EC006F
:1007F0009091ED005091F00091FF1BC08091EB00B3
:100800008E7F8093EB008091ED008D7F8093ED00D3
:100810008091EB0081608093EB007093EC009093EB
:10082000ED005093F0008091EE0087FD02C080E063
:1008300008952F5F273080F23F703093E90081E008
:10084000089580917E0188239CF404C080917D01ED
:100850008823B9F08091E80082FFF8CF8091E8000A
:100860008B778093E800089580917D01882349F07B
:100870008091E80080FFF8CF8091E8008E77809328
:10088000E80008954091E4005091E50024E680914D
:10089000EC0080FF24C08091E80080FD1EC08091A4
:1008A0007D01882311F482E00895853011F483E0FE
:1008B00008958091EB0085FF02C081E0089580914A
:1008C000E4009091E5008417950709F3222311F4C1
:1008D00084E008952150AC01DACF80E00895809142
:1008E000E80082FFDCCFF9CFEF92FF920F931F93C6
:1008F0004FD056D008ED10E0F80180818F778083CB
:1009000080818068808380818F7D808319BC109274
:100910007D011092790110927B0110927A0180EE94
:10092000E82EF12CF70180818B7F8083F801808194
:100930008160808380E060E042E34BDFE1EEF0E045
:1009400080818E7F8083E2EEF0E080818160808311
:10095000808188608083F70180818E7F8083F801A9
:100960008081806180831F910F91FF90EF900895A7
:10097000E8EDF0E080818F7E8083E7EDF0E080811C
:100980008160808384E082BF81E080937C01ACCF72
:10099000E8EDF0E080818E7F80831092E200089580
:1009A0001092DA001092E10008951F920F920FB694
:1009B0000F9211242F933F934F935F936F937F93E5
:1009C0008F939F93AF93BF93EF93FF938091E10039
:1009D00082FF0AC08091E20082FF06C08091E100A0
:1009E0008B7F8093E1000FD28091DA0080FF1DC0E1
:1009F0008091D80080FF19C08091DA008E7F8093AB
:100A0000DA008091D90080FF0CC080E189BD82E1CD
:100A100089BD09B400FEFDCF81E080937D01CFDB6D
:100A200004C019BC10927D01CBDB8091E10080FFF6
:100A300018C08091E20080FF14C08091E2008E7F98
:100A40008093E2008091E20080618093E2008091D7
:100A5000D80080628093D80019BC85E080937D0126
:100A6000D2D18091E10084FF2FC08091E20084FF09
:100A70002BC080E189BD82E189BD09B400FEFDCFB4
:100A80008091D8008F7D8093D8008091E1008F7E87
:100A90008093E1008091E2008F7E8093E20080915C
:100AA000E20081608093E20080917901882311F057
:100AB00084E007C08091E30087FD02C081E001C0AF
:100AC00083E080937D019FD18091E10083FF22C06C
:100AD0008091E20083FF1EC08091E100877F8093B8
:100AE000E10082E080937D01109279018091E10024
:100AF0008E7F8093E1008091E2008E7F8093E20000
:100B00008091E20080618093E20080E060E042E357
:100B100060DE79D1FF91EF91BF91AF919F918F915D
:100B20007F916F915F914F913F912F910F900FBEE9
:100B30000F901F9018951F93DF93CF93CDB7DEB71B
:100B4000AC970FB6F894DEBF0FBECDBFEEE7F1E075
:100B50008091F100819321E0E638F207C9F731DB9B
:100B60008091E80083FF37C180917E0130917F0141
:100B7000353009F487C0363040F43130C9F13130B6
:100B800070F0333009F027C133C0383009F4F5C0B4
:100B9000393009F404C1363009F01DC196C08038DF
:100BA00021F0823809F017C108C090917A01809134
:100BB0007B01882399F0926011C0809182018F702F
:100BC0008093E9008091EB0090E025E09695879571
:100BD0002A95E1F7982F91701092E9008091E80032
:100BE000877F8093E8009093F1001092F100D0C0CD
:100BF000882319F0823009F0EEC090E08F71907078
:100C0000009721F0029709F0E6C00CC080918001A6
:100C1000813009F0E0C010927B01333069F5809398
:100C20007B012AC080918001882331F520918201C7
:100C30002F7009F4D0C02093E9008091EB0080FF71
:100C40001BC0333021F48091EB00806213C080918F
:100C5000EB0080618093EB0081E090E002C0880FA0
:100C6000991F2A95E2F78093EA001092EA0080919A
:100C7000EB0088608093EB001092E9008091E8001F
:100C8000877F89C0882309F0A6C0109180011F7753
:100C90008091E3008078812B8093E3008091E800CD
:100CA000877F8093E800CDDD8091E80080FFFCCF56
:100CB0008091E30080688093E300112311F482E0C7
:100CC00001C083E080937D0186C08058823008F0A7
:100CD00082C0809180019091810123E08C3D920738
:100CE00009F033C083E08C838AE28B837FB7F8946A
:100CF000DE0115966EE040E050E011E2E62FF0E0F4
:100D000010935700849140FF03C082958F706F5FEE
:100D10008F70282F30E08A3018F0C901C79602C0C2
:100D2000C901C0968D939D934F5F5F4F443151052C
:100D300029F77FBF8091E800877F8093E800CE018C
:100D400003966AE270E0CCDB12C060918201AE01D2
:100D50004F5F5F4F85DBBC01009709F43CC0809179
:100D6000E800877F8093E80089819A8123DC809165
:100D7000E8008B778093E8002EC0803861F5809181
:100D8000E800877F8093E800809179018093F100EB
:100D90008091E8008E778093E80053DD1CC08823A3
:100DA000D1F4909180019230B0F48091E800877F77
:100DB0008093E8009093790144DD80917901882344
:100DC00031F48091E30087FD02C081E001C084E03E
:100DD00080937D0122DB8091E80083FF0AC080912F
:100DE000E800877F8093E8008091EB008062809329
:100DF000EB00AC960FB6F894DEBF0FBECDBFCF911F
:100E0000DF911F91089508951F9380917D0188239C
:100E100071F01091E9008091EC001092E90080914E
:100E2000E80083FF01C087DE1F701093E9001F9167
:100E300008959B01AC01F89460E079E08DE390E0C7
:100E4000AAD02150304040405040569547953795A4
:100E500027953093CD002093CC0082E08093C8008A
:100E600088E98093C90086E08093CA0010922E0121
:100E700080912E0180932D0110927001809170015C
:100E800080936F0178940895282F90912D019F5F92
:100E9000983208F090E080912E018917E1F3E92F54
:100EA000F0E0EB5FFE4F208390932D0188EB809361
:100EB000C900089590916F01809170019817D1F346
:100EC000909170019F5F903408F090E0E92FF0E07E
:100ED000E15DFE4F808190937001089580916F01D4
:100EE00090917001891710F0891B0895805C891B0F
:100EF00008951F920F920FB60F9211248F939F9314
:100F0000EF93FF9390912D0180912E01981721F47A
:100F100088E98093C9000FC090912E019F5F98329D
:100F200008F090E0E92FF0E0EB5FFE4F80818093C6
:100F3000CE0090932E01FF91EF919F918F910F9092
:100F40000FBE0F901F9018951F920F920FB60F9221
:100F500011242F938F939F93EF93FF932091CE00B3
:100F600090916F019F5F903408F090E08091700144
:100F7000981739F0E92FF0E0E15DFE4F2083909360
:100F80006F01FF91EF919F918F912F910F900FBE65
:100F90000F901F901895A1E21A2EAA1BBB1BFD01F2
:100FA0000DC0AA1FBB1FEE1FFF1FA217B307E40748
:100FB000F50720F0A21BB30BE40BF50B661F771FA0
:100FC000881F991F1A9469F7609570958095909580
:0E0FD0009B01AC01BD01CF010895F894FFCF45
:040FDE0061050000A9
:00000001FF
